:020000040800F2
:100000003808002085180008C5060008C706000843
:10001000CB060008CF060008D30600080000000049
:10002000000000000000000000000000D7060008EB
:10003000D906000800000000DB060008DD06000805
:100040009F1800089F1800089F1800089F180008B4
:100050009F1800089F1800089F1800089F180008A4
:100060009F1800089F1800089F1800089F18000894
:100070009F1800089F1800089F1800089F18000884
:100080009F1800089F1800089F1800089F18000874
:100090009F1800089F1800089F1800089F18000864
:1000A0009F180008970500089F1800089F1800086F
:1000B0009F180008D3110008ED1000089F180008D1
:1000C0009F1800089F1800089F1800089F18000834
:1000D0009F180008730500089F180008B51600084F
:1000E0009F1800089F1800089F18000800F002F8E9
:1000F00000F0B0F80AA090E8000C82448344AAF112
:100100000107DA4501D100F0A5F8AFF2090EBAE80F
:100110000F0013F0010F18BFFB1A43F0010318473B
:10012000C4620000E46200000A444FF0000C10F8C2
:10013000013B13F0070408BF10F8014B1D1108BF65
:1001400010F8015B641E05D010F8016B641E01F805
:10015000016BF9D113F0080F1EBF10F8014BAD1C55
:100160000C1B09D16D1E58BF01F801CBFAD505E073
:1001700014F8016B01F8016B6D1EF9D59142D6D3CD
:10018000704700000023002400250026103A28BFF5
:1001900078C1FBD8520728BF30C148BF0B607047F9
:1001A0006E2904F01E82702904F07383662905F01D
:1001B0009F84652905F09C84672905F0998461294D
:1001C000AFF3008003681B0A28BF41F08001692952
:1001D00004F04880642904F04580752904F04280C9
:1001E0006F2904F00083782904F03F83E92904F0A3
:1001F0009B82E42904F09882F52904F09582EF2986
:1002000004F0FD82F82904F03E830368DB0928BF6F
:1002100041F08001632904F0A585732904F0AA85C3
:10022000E32904F0B585F32904F0BA85002070476E
:100230001FB504F00BFE04000020002105F004FBB4
:10024000401C60600020002105F0E8FAE0601FBD5E
:1002500010B510BD04F0CCFD1146FFF7E9FF00F02A
:1002600009F804F0A9FE03B4FFF7F2FF03BC01F0A4
:10027000ABFA000008B54FF4A06001F023FB01F0D9
:1002800039FA4FF4165001F0ADFA4FF4165001F060
:100290009FF900F0ADFC00F0ADFE00F0F7FD00F0BE
:1002A00065FE00F069FD41F61F41F92001F056F9A5
:1002B000472140F2E73000F0B9FF00F038FF00F0CE
:1002C000BDFEDFA20021084600F00BFC00F04BFB56
:1002D0000020DD490860DD490860DD490860312003
:1002E000DC49087040F64850DB49086040E100F006
:1002F0008CFD102001230090D84800210268084698
:1003000000F0ADFB102001230090D54800210268C9
:10031000082000F0A4FB102001230090D148002108
:100320000268102000F09BFB102001230090CE48B3
:1003300000210268182000F092FB10200123009099
:10034000CA4800210268202000F089FB1020012308
:100350000090C74802210268002000F080FB00F0F6
:100360002BFE102001230090C248042102680020C7
:1003700000F075FB102001230090BF4804210268A3
:10038000082000F06CFBC82001F0F1F9BB480078B0
:1003900054280CD103F086FCB94908600846B9A17D
:1003A0000268BB4801F064F93020B4490870B348D2
:1003B000007847281AD1B7A003F048FF3120B6498A
:1003C0000870B649087003E04FF4AA7000F0D6FF39
:1003D000A74800680528F7D13020AF490870AF4919
:1003E000087001F06FF83020A4490870A348007825
:1003F000672818D1A7A003F029FF3120A64908706B
:10040000A64908709449098888B24FF4AA7102F08D
:1004100059FF3020A0490870A049087001F052F837
:1004200030209649087095480078622807D101F07D
:1004300049F80A2001F09BF93020904908708F4854
:100440000078332804D103F013F930208B49087069
:100450008A480078342804D103F070F930208749A5
:10046000087086480078352804D103F0AAF93020B6
:100470008249087081480078362804D103F035FAA3
:1004800030207E4908707D480078372804D103F079
:10049000C0FA30207949087078480078382804D1AB
:1004A00003F05AFB302075490870744800786128C1
:1004B0000CD1694800683230674908600846016815
:1004C00077A003F0C3FE30206C4908706B480078B9
:1004D00064280CD16048006832385F4908600846DB
:1004E00001686FA003F0B2FE3020644908706348D1
:1004F00000784C2804D102F063FF30205F49087077
:100500005E480078522804D102F02BFF30205B496E
:1005100008705A480078412803D06548007841287F
:1005200007D102F07BFF3020544908704E2060490B
:10053000087052480078422803D05D48007842286D
:1005400007D103F005F830204C4908704E20584977
:1005500008705748007845280AD156A20621002085
:1005600000F0BFFA3020454908704E20504908700D
:10057000BDE610B52021464801F03CFF012809D115
:10058000434801F0CDFE3D490870084601784048D7
:1005900001F0C2FE10BD10B50121484802F07DFEF9
:1005A00000284CD03C48007831282DD100F02DFC9B
:1005B0002F480068022827DC28480068012804D159
:1005C0002A48006808B900F049FF2548006801285A
:1005D00004D12548006808B900F00EFF22480068E1
:1005E000012804D11E48006808B900F01EFF1F480A
:1005F0000068012804D11948006808B900F048FFD4
:100600004FF4AA7000F0BAFE12480078312805D1E4
:1006100000F0D2FC17480068294908600A480068C1
:10062000322803D100200849086004E00648006829
:10063000401C054908600121204802F03FFE10BD22
:100640004C454C450000000024000020A40100207F
:10065000A8010020140000200400002080010020D8
:1006600084010020880100208C01002090010020DE
:1006700094010020980100209C010020000000202F
:1006800028000020746573743A25640D0A00000088
:1006900000380140656E00001500002017000020A2
:1006A00064697374616E6365A3BA25640D0A000002
:1006B000AC010020436F6E6E65637400002C014036
:1006C00010000020704700BFFEE700BFFEE700BF3C
:1006D000FEE700BFFEE770477047704770470000B5
:1006E0000CB50020019000906C48006840F4803008
:1006F0006A49086000BF6948006800F40030009053
:100700000198401C0190009818B90198B0F5A06FAD
:10071000F1D16248006800F4003010B1012000906F
:1007200001E0002000900098012843D15C48006857
:1007300040F010005A4908600846006820F00300A5
:1007400008600846006840F00200086053484068AE
:10075000524948600846406848600846406840F48E
:10076000806048600846406820F47C104860084675
:10077000406840F4E81048600846006840F0807027
:10078000086000BF4548006800F000700028F9D0FC
:100790004248406820F003004049486008464068ED
:1007A00040F00200486000BF3C48406800F00C0088
:1007B0000828F9D10CBD10B5FFF792FF10BD10B598
:1007C0003648006840F00100344908600846406837
:1007D00034490840314948600846006832490840B9
:1007E0002E4908600846006820F48020086008460A
:1007F000406820F4FE0048604FF41F008860FFF757
:10080000DAFF4FF000602949086010BD10B50021E3
:1008100000200022214B5B6803F00C0121B1042968
:1008200006D0082928D107E0214B224C236027E07D
:100830001F4B204C236023E0184B5B6803F47010BF
:10084000164B5B6803F48032022303EB904022B91D
:10085000194B4343174C23600DE0104B5B6803F4C6
:10086000003323B1144B4343124C236003E0104B7D
:100870004343104C236003E00D4B0E4C236000BF3C
:1008800000BF064B5B68C3F303130C4CE15C094BE0
:100890001B68CB40074C236010BD000000100240D5
:1008A000002002400000FFF8FFFFF6FE08ED00E028
:1008B00000127A002C00002000093D0030000020CA
:1008C00070B504460E4626B12021FE4801F075F9A8
:1008D00003E02021FB4801F072F94FF48051FA48FF
:1008E00001F06DF900251BE04FF48041F64801F05E
:1008F00066F904F0800028B14FF40041F24801F09D
:100900005CF904E04FF40041EF4801F058F94FF46E
:100910008041ED4801F051F96006040E681CC5B233
:10092000082DE1DB4FF48051E74801F046F9202122
:10093000E44801F042F970BD70B504460D4605F17A
:10094000B001C8B20021FFF7BBFF102141EA14102B
:100950000021FFF7B5FF04F00F0141F00100002175
:10096000FFF7AEFF70BD10B500218D20FFF7A8FF87
:1009700000211420FFF7A4FF0021AF20FFF7A0FF04
:1009800010BD10B500218D20FFF79AFF0021102027
:10099000FFF796FF0021AE20FFF792FF10BD70B564
:1009A000002419E004F1B001C8B20021FFF788FF6C
:1009B00000210846FFF784FF00211020FFF780FF89
:1009C000002505E001210020FFF77AFF681CC5B271
:1009D000802DF7DB601CC4B2082CE3DB70BD2DE971
:1009E000F04107460E46904600250024A8F120005D
:1009F000C5B27F2F02DD0027B01CC6B23146384693
:100A0000FFF79AFF002408E004EB0511AF4A505CA1
:100A10000121FFF755FF601CC4B2082CF4DB701CE9
:100A2000C1B23846FFF788FF002409E004EB051146
:100A30000831A64A505C0121FFF742FF601CC4B296
:100A4000082CF3DBBDE8F08110B50246012000E080
:100A500050430B1EA1F10104E1B2F9D110BD2DE903
:100A6000FF5F074691461D460E9E4FF0000A002488
:100A700033E0281B401EC1B20A20FFF7E5FFB9FB97
:100A8000F0F00A21B0FBF1F201FB1208BAF1000FFD
:100A900013D1681EA04210DDB8F1000F0BD1B34690
:100AA00006EBDB71491001FB0471C8B220220199E9
:100AB000FFF795FF0FE04FF0010AB34606EBDB713D
:100AC000491001FB0471C8B208F13001CAB20199A2
:100AD000FFF785FF00BF601CC4B2AC42C9DBBDE8B4
:100AE000FF9F2DE9F04104460F46154600260EE013
:100AF000AA5D39462046FFF772FF04F10800C4B230
:100B0000782C02DD0024B81CC7B2701CC6B2A85DE8
:100B10000028EDD1BDE8F0812DE9F04180460E4678
:100B20001546002731464046FFF706FF00240AE03D
:100B3000674A02EB8511085D0121FFF7C1FE781CB1
:100B4000C7B2601CC4B2102CF2DB701CC1B24046AC
:100B5000FFF7F2FE00240CE06900491C5C4A02EB3E
:100B60004111085D0121FFF7ABFE781CC7B2601C84
:100B7000C4B2102CF0DBBDE8F0812DE9F05F064631
:100B80000F4690461C46DDF828A04FF0000BE117F9
:100B900004EB5171C910A4EBC10131B92046E11732
:100BA00004EB5171C1F3C70506E02046E11704EBE1
:100BB0005171C910491CCDB23D4615E02946304659
:100BC000FFF7BAFEB1460BE059460BF1010B1AF8DC
:100BD00001000121FFF774FE09F1010000F0FF0997
:100BE000C145F1DB681CC5B2A542E7DBBDE8F09F5B
:100BF00008B50121042001F0EFF93020ADF8000024
:100C000010208DF8030003208DF8020069462D485E
:100C100000F026FF0C212B4800F0CFFF0121082017
:100C200001F0DAF94FF45040ADF8000010208DF8D3
:100C3000030003208DF802006946234800F010FFEE
:100C40004FF45041204800F0B8FF10211D4800F03B
:100C5000B4FF642000F08BFD10211A4800F0AFFFB4
:100C6000C82000F084FD1021164800F0A6FF0021E6
:100C7000AE20FFF725FE00210846FFF721FE0021E8
:100C80001020FFF71DFE00214020FFF719FE002174
:100C90008120FFF715FE0021CF20FFF711FE002174
:100CA000A120FFF70DFE0021C820FFF709FE00215B
:100CB000A620FFF705FE0021A820FFF701FE002176
:100CC0003F2007E000080140000C01401C5D0008C7
:100CD00040000020FFF7F4FD0021D320FFF7F0FDD6
:100CE00000210846FFF7ECFD0021D520FFF7E8FDC5
:100CF00000218020FFF7E4FD0021D920FFF7E0FD6F
:100D00000021F120FFF7DCFD0021DA20FFF7D8FDFC
:100D100000211220FFF7D4FD0021DB20FFF7D0FDDA
:100D200000214020FFF7CCFD00212020FFF7C8FD67
:100D300000210220FFF7C4FD00218D20FFF7C0FD38
:100D400000211420FFF7BCFD0021A420FFF7B8FD0F
:100D50000021A620FFF7B4FD0021AF20FFF7B0FD72
:100D60000021AF20FFF7ACFDFFF719FE0021084678
:100D7000FFF7E2FD08BD000008B50121082001F0E1
:100D80002BF90120ADF8000003208DF80200282087
:100D90008DF803006946354800F062FE01213348B2
:100DA00000F00DFF0220ADF8000069462F4800F06A
:100DB00057FE02212D4800F002FF2020ADF8000070
:100DC00069462A4800F04CFE2021284800F0F7FE32
:100DD0001020ADF800006946244800F041FE1021C3
:100DE000224800F0ECFE0121102001F0F5F84FF44C
:100DF0000050ADF8000069461D4800F031FE4FF488
:100E000000511B4800F0DBFE08BD10B5012117485A
:100E100000F0B9FE174908600221144800F0B3FE43
:100E2000154908604FF40051114800F0ACFE134919
:100E3000086020210D4800F0A6FE1149086010212D
:100E40000A4800F0A0FE0F4908600A4800680A49F5
:100E500009680844094909680844094909680844B7
:100E60000849096808440849086010BD000C0140A1
:100E70000010014080010020840100208801002032
:100E80008C010020900100209401002008B5012170
:100E9000042001F0A1F81020ADF8000003208DF827
:100EA000020010208DF80300C001ADF80000694673
:100EB0002C4800F0D5FD4FF400612A4800F07DFE7B
:100EC0004FF48050ADF800006946264800F0C8FD98
:100ED0004FF48051234800F070FE0121224800F0B9
:100EE00090FE4FF40040ADF8000069461D4800F048
:100EF000B7FD4FF400411B4800F05FFE08BD10B580
:100F00004FF40061174800F05AFE4FF48051154825
:100F100000F053FE4FF40041124800F04EFE10BDA9
:100F200010B54FF400610F4800F047FE4FF48051B8
:100F30000C4800F042FE4FF400410A4800F03FFE2A
:100F400010BD10B54FF40061064800F036FE4FF4B6
:100F50008051044800F033FE4FF40041014800F096
:100F60002CFE10BD000801400002300008B5012130
:100F7000082001F031F84FF48070ADF80000032034
:100F80008DF8020028208DF803006946154800F00E
:100F900067FD4FF48071134800F011FE4FF40070AC
:100FA000ADF8000069460F4800F05AFD4FF400719B
:100FB0000C4800F004FE08BD10B54FF480710948DC
:100FC00000F0E1FD084908604FF40071054800F0A9
:100FD000DAFD0649086004480068096808440449C5
:100FE000086010BD000C0140980100209C01002009
:100FF000A001002008B50121042000F0EDFF4FF40E
:101000008070ADF8000010208DF8030003208DF8EB
:1010100002006946084800F023FD08BD10B54FF4F2
:101020008071054800F0CBFD10BD10B54FF4807104
:10103000014800F0C2FD10BD0008014000B589B0B4
:101040000121042000F0D5FF0121082000F0C4FF99
:1010500008A800F090FDC020ADF8200004208DF815
:10106000230003208DF8220008A96A4800F0F8FC4C
:1010700005A801F019FE40F21760ADF81800002035
:10108000ADF81400ADF81A00ADF8160005A96248D5
:1010900001F0DEFA0A231A4603215F4801F0E7FE59
:1010A00002A801F014FE0020ADF8100002A95A4871
:1010B00001F061FD01221146574801F040FE1E205B
:1010C0008DF8040001208DF805008DF806008DF8DC
:1010D000070001A800F0FBFB00214F4802F0A8F830
:1010E00001214D4801F010FE09B000BD10B50121ED
:1010F000494802F0D2F8012814D147480088C0F3CB
:10110000001028B945480068401C4449086009E0BF
:1011100041480088C0F3001020B140480068401EDC
:101120003E49086001213C4802F0C8F810BD00B5F6
:1011300089B00121022000F05CFF0121042000F0B1
:101140004BFFC020ADF8200048208DF8230008A9EF
:10115000334800F085FC05A801F0A6FD40F21760B9
:10116000ADF818000020ADF81400ADF81A00ADF885
:10117000160005A92B4801F06BFA0A231A46032131
:10118000284801F074FE02A801F0A1FD0020ADF88E
:10119000100002A9234801F0EEFC0122114621486B
:1011A00001F0CDFD1D208DF8040001208DF8050013
:1011B0008DF806008DF8070001A800F088FB0021DB
:1011C000184802F035F80121164801F09DFD09B0DC
:1011D00000BD10B50121134802F05FF8012814D1B9
:1011E00010480088C0F3001028B90F480068401E5E
:1011F0000D49086009E00B480088C0F3001020B1D9
:1012000009480068401C084908600121054802F0AF
:1012100055F810BD000C014000080040A40100205A
:101220000008014000040040A801002030B589B04A
:1012300005460C460121084600F0DBFE0121042092
:1012400000F0CAFE0120ADF8200018208DF8230020
:1012500003208DF8220008A9BE4800F001FC0121FE
:10126000BC4800F0AAFC0220ADF8200018208DF840
:10127000230003208DF8220008A9B64800F0F0FBF7
:101280000221B44800F099FC0420ADF82000182099
:101290008DF8230003208DF8220008A9AD4800F046
:1012A000DFFB0421AB4800F088FC0820ADF82000EB
:1012B00018208DF8230003208DF8220008A9A548E6
:1012C00000F0CEFB0821A34800F077FCADF81850E1
:1012D000ADF814400020ADF81A00ADF8160005A9CD
:1012E0004FF0804001F0B4F97020ADF80400012007
:1012F000ADF806000220ADF80C0001A9400701F08E
:10130000E4F97020ADF804000120ADF806000220D9
:10131000ADF80C0001A9400701F019FA7020ADF8F2
:1013200004000120ADF806000220ADF80C0001A970
:10133000400701F059FA7020ADF804000120ADF823
:1013400006000220ADF80C0001A9400701F097FA51
:101350000821C80601F008FE0821C80601F00DFEAC
:101360000821C80601F016FE0821C80601F01BFE80
:101370000121880701F0C8FC09B030BD2DE9F04714
:101380000446204604F0A3FA07464FF03332724B6E
:1013900004F0B0FA054604F06DFA1FFA80F94946E8
:1013A0004FF0804001F048FF00214FF0804001F0F5
:1013B00045FF21464FF0804001F044FF00214FF0EF
:1013C000804001F03DFFBDE8F08710B504460021E4
:1013D0004FF0804001F030FF21464FF0804001F097
:1013E0002DFF00214FF0804001F02CFF21464FF0EF
:1013F000804001F025FF10BD10B500214FF0804066
:1014000001F01AFF4FF4AA71080701F017FF4FF41B
:10141000FA71080701F016FF00214FF0804001F03B
:101420000FFF032000F0A3F910BD10B54FF4FA71BF
:10143000080701F001FF00214FF0804001F0FEFE9F
:1014400000214FF0804001F0FDFE4FF4AA71080723
:1014500001F0F6FE032000F08AF910BD10B500215E
:101460004FF0804001F0E8FE4FF4AA71080701F048
:10147000E5FE40F24E214FF0804001F0E3FE0021F6
:101480004FF0804001F0DCFE052000F070F910BD47
:1014900010B540F24E214FF0804001F0CDFE00210A
:1014A0004FF0804001F0CAFE00214FF0804001F073
:1014B000C9FE4FF4AA71080701F0C2FE052000F032
:1014C00056F910BD10B540F2E7314FF0804001F001
:1014D000B3FE40F2E7314FF0804001F0AFFE40F242
:1014E000E7314FF0804001F0ABFE40F2E7314FF0C2
:1014F000804001F0A7FE10BD10B500214FF08040E4
:1015000001F09AFE4FF4DB714FF0804001F096FE3F
:101510004FF4E171480701F095FE00214FF0804043
:1015200001F08EFE10BD10B54FF4DB714FF080401E
:1015300001F082FE00214FF0804001F07FFE00218B
:101540004FF0804001F07EFE4FF4E171480701F05A
:1015500077FE10BD000801403333EF3F7FB50546ED
:101560000C460121C80200F037FDA8B2ADF8080012
:10157000A0B2ADF804000020ADF80A00ADF80600F6
:1015800001A9124801F064F801A9104801F060F8BF
:1015900001210E4801F07EFE012241210B4801F09D
:1015A000CEFB19208DF8000000208DF801000320EB
:1015B0008DF8020001208DF80300684600F087F9DD
:1015C0000121024801F0A0FB7FBD0000002C01407A
:1015D00010B586B004460121082000F0FDFC012171
:1015E000880400F006FD4FF48060ADF8140003207D
:1015F0008DF8160018208DF8170005A9394800F05D
:101600002FFA4FF40060ADF8140004208DF8170095
:1016100005A9344800F024FA01940020ADF8100028
:101620000C20ADF80E000020ADF80C00ADF80A005B
:10163000ADF8080001A92C4800F075FD01212A48E9
:1016400000F0FDFD012240F22551274800F003FE85
:1016500027208DF8000001208DF8030000208DF870
:1016600001008DF80200684600F031F906B010BDA7
:101670000FB430B5CBB0054601AC50A8009001A81E
:10168000009A4F9902F0D0FD002000900BE014F872
:10169000011B284600F040FE00BF4021284600F014
:1016A000A9FE0028F9D020780028F0D14BB030BC3A
:1016B0005DF814FB10B540F225510B4800F0B0FE68
:1016C00070B140F22551084800F0D4FE064800F001
:1016D00027FE0649087008460178054800F01CFE00
:1016E00010BD0000000C014000480040AC0100208B
:1016F0000038014010B56FF0040000F032F92E48B8
:1017000000682E49B0FBF1F02D49087008460078BA
:1017100000EB4001C1EBC0104FF6FF7101EAC000C1
:101720002849088010BD0146254A12784A434FF0E7
:10173000E0235A6100229A611A46126942F00102BE
:101740001A6100BF4FF0E022106900F001021AB1E7
:1017500000F48032002AF5D04FF0E022126922F026
:1017600001024FF0E0231A6100229A61704701469E
:10177000144A12884A434FF0E0235A6100229A61CA
:101780001A46126942F001021A6100BF4FF0E022CE
:10179000106900F001021AB100F48032002AF5D07D
:1017A0004FF0E022126922F001024FF0E0231A61AB
:1017B00000229A61704700002C00002000127A007D
:1017C000AE010020B001002000BF704700BF2B4ACF
:1017D000128802F04002002AF9D0C2B2274B1B1D2A
:1017E0001A80704710B586B00446012144F2040007
:1017F00000F0F2FB4FF40070ADF8140003208DF8F8
:10180000160018208DF8170005A91D4800F028F9CA
:101810004FF48060ADF8140004208DF8170005A97E
:10182000174800F01DF925208DF8000003208DF8E1
:1018300001008DF8020001208DF80300684600F0D9
:1018400046F801940020ADF80800ADF80A00ADF8A4
:101850000C00ADF810000C20ADF80E0001A90748EF
:1018600000F061FC012240F22551044800F0F3FC35
:101870000121024800F0E3FC06B010BD0038014031
:10188000000801400948804709480047FEE7FEE795
:10189000FEE7FEE7FEE7FEE7FEE7FEE7FEE7FEE720
:1018A00004480549054A064B70470000BF07000879
:1018B000ED0000083802002038080020380400201D
:1018C0003804002031490143314A1160704770B536
:1018D000002100230F22C47804B32D4C246804F4A3
:1018E000E064C4F5E064210AC1F10403CA4044780D
:1018F00004FA03F18478144021430901254C067849
:10190000A155047804F01F050124AC4005786D1141
:10191000AD0005F1E025C5F8004109E0047804F0C8
:101920001F050124AC401C4D0678761145F8264071
:1019300070BD1A4A0A400243154B1B1F1A607047BC
:1019400039B1134A121D12680243114B1B1D1A6054
:1019500006E00F4A121D126882430D4B1B1D1A60D0
:101960007047042808D14FF0E021096941F00401D3
:101970004FF0E022116107E04FF0E021096921F00A
:1019800004014FF0E0221161704700000000FA05E9
:101990000CED00E000E400E080E100E080FFFF1FCC
:1019A00010B50446CC48844208D10121042000F03F
:1019B0002DFB0021042000F029FB46E0C7488442AB
:1019C00008D10121082000F021FB0021082000F0AF
:1019D0001DFB3AE0C248844208D10121102000F0EA
:1019E00015FB0021102000F011FB2EE0BD488442C1
:1019F00008D10121202000F009FB0021202000F067
:101A000005FB22E0B848844208D10121402000F0C3
:101A1000FDFA0021402000F0F9FA16E0B3488442B4
:101A200008D10121802000F0F1FA0021802000F08F
:101A3000EDFA0AE0AE48844207D10121801500F09A
:101A4000E5FA0021A01500F0E1FA10BD10B5012162
:101A5000084600F0DBFA0021012000F0D7FA10BDA3
:101A60002DE9F04102460025002600200023002435
:101A7000002791F803C00CF00F0591F803C00CF09B
:101A8000100CBCF1000F03D091F802C04CEA050520
:101A900091F800C0BCF1000F31D0146800202BE099
:101AA0004FF0010C0CFA00F3B1F800C00CEA030689
:101AB0009E4220D183004FF00F0C0CFA03F7BC4379
:101AC00005FA03FC4CEA040491F803C0BCF1280FAA
:101AD00006D14FF0010C0CFA00FCC2F814C00AE069
:101AE00091F803C0BCF1480F05D14FF0010C0CFA7E
:101AF00000FCC2F810C0401C0828D1D31460B1F813
:101B000000C0BCF1FF0F34DD546800202EE000F16E
:101B1000080C4FF0010808FA0CF3B1F800C00CEA09
:101B200003069E4221D183004FF00F0C0CFA03F7FD
:101B3000BC4305FA03FC4CEA040491F803C0BCF171
:101B4000280F05D100F1080C08FA0CF8C2F814802F
:101B500091F803C0BCF1480F07D100F1080C4FF019
:101B6000010808FA0CF8C2F81080401C0828CED3EF
:101B70005460BDE8F0814FF6FF7101800221817051
:101B80000421C17070470246002093680B400BB1DE
:101B9000012000E0002070470146886880B270474D
:101BA00002460020D3680B400BB1012000E000206A
:101BB00070470146C86880B2704701617047416153
:101BC00070470AB1016100E041617047C160704730
:101BD0004FF480320A438261816182618269826945
:101BE000704702460020434B18684FF68073184038
:101BF00040EA021008433F4B186070473E49C861F5
:101C00007047F0B50A46002300240021002500F0AB
:101C10000046B6F1004F02D1364EF16901E0354E73
:101C20007168C0F3034583B200F44016B6F5401F57
:101C300008D121F070612F4E766826F070662D4F26
:101C40007E6012E000F48016B6F5801F06D10326F0
:101C500006FA05F4A14341F0706106E0460D360135
:101C600003FA06F6B14341F0706122B1460D360128
:101C700003FA06F6314300F00046B6F1004F02D1F8
:101C80001C4EF16101E01B4E7160F0BD30B50022C9
:101C90008B071C0F0F2303FA04F2164B08338C102A
:101CA00053F824309343134C08348D1044F82530F6
:101CB00023468C1053F824308C07240F00FA04F4C8
:101CC00023430C4C08348D1044F8253030BD0A49AC
:101CD000DC3108607047000000080140000C014042
:101CE000001001400014014000180140001C014098
:101CF000002001400000014000002042DF48006851
:101D000040F00100DD49086008464068DC490840B1
:101D1000DA49486008460068DA490840D74908604F
:101D20000846006820F4802008600846406820F4D7
:101D3000FE0048604FF41F0088607047CF49096873
:101D400021F48031CD4A11601146096821F48021C7
:101D50001160B0F5803F03D0B0F5802F0ED106E0C2
:101D6000C649096841F48031C44A116007E0C3499B
:101D7000096841F4A021C14A116000E000BF00BF22
:101D8000704710B501460022002300204A11012AA5
:101D900002D1BA4C236806E0022A02D1B74C236A6A
:101DA00001E0B64C636A01F01F02012494401C401C
:101DB0000CB1012000E0002010BD38B500200090DB
:101DC0000024002500BF3120FFF7DBFF0546009807
:101DD000401C00900098B0F5A06F01D0002DF2D00B
:101DE0003120FFF7CEFF08B1012400E00024204697
:101DF00038BD01460020A14A106820F0F80040EAF2
:101E0000C10010607047A04908607047024600207A
:101E10009A4B586820F47C1042EA01031843974B10
:101E20005860704798490866704701460020934AF9
:101E3000506820F003000843506070478F484068A6
:101E400000F00C007047014600208C4A506820F0DA
:101E5000F00008435060704701460020874A5068F0
:101E600020F4E06008435060704701460020834A38
:101E7000506820F4605040EAC1005060704729B1BA
:101E80007E4A527A02437D4B5A7204E07B4A527A70
:101E900082437A4B5A7270477B49D8310860704749
:101EA00001460020754A506820F4404008435060C5
:101EB00070470021714A20321170704A82F8201058
:101EC000012802D004280AD104E001216B4A203203
:101ED000117005E00521694A2032117000E000BF51
:101EE00000BF70476949086070476449096A014347
:101EF000624A11627047654944390860704730B5DD
:101F000000210022002400235C4D6D6805F00C01C7
:101F100021B1042905D0082923D105E05C4D0560D5
:101F200022E05B4D05601FE0544D6D6805F47012B2
:101F3000524D6D6805F48034022505EB92421CB9C0
:101F4000544D554305600BE04C4D6D6805F400356C
:101F50001DB1504D5543056002E04D4D55430560A0
:101F600002E04B4D056000BF00BF444D6D6805F0B9
:101F7000F0010909484D6B5C0568DD4045603F4D47
:101F80006D6805F4E061090A434D6B5C4568DD400E
:101F900085603A4D6D6805F46051C90A3E4D6B5C31
:101FA0004568DD40C560354D6D6805F44041890BDD
:101FB0003A4D6B5CC568B5FBF3F5056130BD29B1E1
:101FC0002E4A526902432D4B5A6104E02B4A526952
:101FD00082432A4B5A61704729B1284A92690243C9
:101FE000264B9A6104E0254A92698243234B9A6109
:101FF000704729B1214AD2690243204BDA6104E0DB
:102000001E4AD26982431D4BDA61704729B11B4ACF
:10201000D2680243194BDA6004E0184AD26882435E
:10202000164BDA60704729B1144A12690243134B08
:102030001A6104E0114A12698243104B1A61704719
:1020400012494039086070470F49C86470470B490E
:10205000C87170470948406A40F08070074948627B
:10206000704701460020054A92680A400AB10120E3
:1020700000E000207047014988727047001002405C
:102080000000FFF8FFFFF6FE0000424280044242DB
:1020900000127A0000093D00BA010020CA010020A8
:1020A00010B50446FB48844209D101218803FFF79B
:1020B000ADFF00214FF48040FFF7A8FF32E0F64863
:1020C000844209D101214804FFF7ADFF00214FF4FC
:1020D0000030FFF7A8FF25E0F048844209D1012134
:1020E0008804FFF7A0FF00214FF48020FFF79BFF3B
:1020F00018E0EB48844209D10121C804FFF793FF9F
:1021000000214FF40020FFF78EFF0BE0E5488442EA
:1021100008D101210805FFF786FF00214FF4801048
:10212000FFF781FF10BD2DE9F04786B005460E464A
:102130000024A24600BFA1460027B08900B100BF1D
:102140002F462C8A4CF6FF700440F08804432C8202
:10215000AC894EF6F3100440B08831890843718988
:1021600008430443AC81AC8A4FF6FF400440B08979
:102170000443AC8201A8FFF7C2FEC648874202D1E1
:10218000DDF810A001E0DDF80CA0A88900F4004003
:1021900040B10AEBCA0000EB0A1031684900B0FBFD
:1021A000F1F807E00AEBCA0000EB0A103168890079
:1021B000B0FBF1F86420B8FBF0F0040120096421C1
:1021C00001FB1089A88900F4004040B1322000EBE7
:1021D000C900B0FBF1F000F00700044308E0322032
:1021E00000EB09106421B0FBF1F000F00F00044394
:1021F0002C8106B0BDE8F0874FF416510160002134
:102200008180C18001810C21418100218181704741
:1022100010B502460020108A4FF2FF0318400B88C9
:102220004C8823438C882343CC8823431843108253
:1022300010BD0021018041808180C180704721B1A3
:10224000828942F40052828104E082894DF6FF7354
:102250001A4082817047F0B503460024002600250D
:10226000002040F66A17B94200D100BF1846C1F3FA
:10227000421401F01F06012707FA06F5012C01D1CF
:102280000C3004E0022C01D1103000E014301AB1FF
:1022900007682F43076002E00768AF430760F0BD9F
:1022A0001AB1838A0B43838202E0838A8B43838241
:1022B0007047028A4FF6F0731A400282028A0A437C
:1022C0000282704782894FF2FF731A4082818289AD
:1022D0000A438281704721B1828942F002028281E1
:1022E00004E082894FF6FD731A4082817047028AAA
:1022F0004FF6DF731A400282028A0A430282704755
:1023000021B1028A42F48042028204E0028A4BF642
:10231000FF731A4002827047C1F30802828070473F
:1023200001468888C0F308007047818941F00101A7
:1023300081817047028BD2B20283028B42EA012272
:1023400002837047028B02F47F420283028B0A43AE
:102350000283704721B1828A42F02002828204E027
:10236000828A4FF6DF731A408282704721B1828AD7
:1023700042F01002828204E0828A4FF6EF731A4024
:102380008282704721B1828A42F00802828204E090
:10239000828A4FF6F7731A408282704721B1828990
:1023A00042F40042828103E08289C2F30E028281FC
:1023B000704721B1828A42F40062828204E0828AFC
:1023C0004FF2FF731A4082827047828A4FF6FB7386
:1023D0001A408282828A0A438282704721B1828AAD
:1023E00042F00202828204E0828A4FF6FD731A40B4
:1023F0008282704702460020B1F5007F00D100BF05
:1024000013880B400BB1012000E00020704701F45D
:102410000072B2F5007F00D100BFCA43028070474E
:1024200070B50246002400230025002040F66A16FD
:10243000B14200D100BFC1F3421501F01F030126D4
:1024400006FA03F3012D02D19689334006E0022DEE
:1024500002D1168A334001E0968A33400C120126DD
:1024600006FA04F41688344013B10CB1012000E0E0
:10247000002070BD10B50022002340F66A14A1426E
:1024800000D100BF0A1201249440A3B2DC430480AF
:1024900010BD0000003801400044004000480040EA
:1024A000004C00400050004010B50446FE488442F5
:1024B00008D10121C014FFF7A9FD0021E014FFF7A6
:1024C000A5FDC4E0B4F1804F08D101210846FFF713
:1024D000AAFD00210120FFF7A6FDB8E0F3488442E1
:1024E00008D101210220FFF79EFD00210220FFF705
:1024F0009AFDACE0EE48844208D101210420FFF7A8
:1025000092FD00210420FFF78EFDA0E0E9488442FF
:1025100008D101210820FFF786FD00210820FFF7E0
:1025200082FD94E0E448844208D101211020FFF7A5
:102530007AFD00211020FFF776FD88E0DF48844215
:1025400008D101212020FFF76EFD00212020FFF798
:102550006AFD7CE0DA48844208D101214014FFF78B
:1025600055FD00216014FFF751FD70E0D54884420D
:1025700009D10121C804FFF749FD00214FF40020D3
:10258000FFF744FD63E0D048844209D101210805EA
:10259000FFF73CFD00214FF48010FFF737FD56E0B8
:1025A000CA48844209D101214805FFF72FFD0021C7
:1025B0004FF40010FFF72AFD49E0C548844208D1D6
:1025C00001214020FFF72FFD00214020FFF72BFDC8
:1025D0003DE0C048844208D101218020FFF723FD5F
:1025E00000218020FFF71FFD31E0BB48844208D165
:1025F00001218015FFF717FD0021A015FFF713FD3E
:1026000025E0B648844209D101210804FFF7FEFC09
:1026100000214FF48030FFF7F9FC18E0B048844205
:1026200009D101214804FFF7F1FC00214FF40030EB
:10263000FFF7ECFC0BE0AB48844208D10121880491
:10264000FFF7E4FC00214FF48020FFF7DFFC10BD12
:1026500000220288944B98420ED0994B98420BD09E
:10266000B0F1804F08D0914B984205D0904B9842E2
:1026700002D0904B984204D14FF68F731A404B888A
:102680001A438D4B984207D08C4B984204D04FF69A
:10269000FF431A40CB881A4302808B8883850B88BE
:1026A0000385814B98420BD0854B984208D08B4BC9
:1026B000984205D08A4B984202D08A4B984201D169
:1026C0000B7A038601238382704770B500240022B1
:1026D0000023058C4FF6FE7635400584028C8388F6
:1026E000048B4FF68F752C40B51E2C400D882C4363
:1026F000751E2A400D892A434D882A436A4DA842F7
:102700000BD06F4DA84208D0744DA84205D0744D2F
:10271000A84202D0734DA84213D14FF6F7752A4054
:102720004D892A434FF6FB752A408D882A434FF680
:10273000FF652B404FF6FF552B408D892B43CD89EC
:102740002B4383800483CD888586028470BD70B559
:10275000002400220023058C4FF6EF7635400584D7
:10276000028C8388048B48F6FF752C404FF6FF459A
:102770002C400D884FF6FF7606EA05252C434FF6D0
:10278000DF752A400D8906EA05152A434D8806EAB9
:1027900005152A43444DA84202D0494DA8421DD1F7
:1027A0004FF67F752A404D894FF6FF7606EA0515EC
:1027B0002A434FF6BF752A408D8806EA05152A433D
:1027C0004FF6FF352B404FF2FF752B408D8906EAFF
:1027D00085052B43CD8906EA85052B438380048339
:1027E000CD880587028470BD70B5002400220023C7
:1027F000058C4FF6FF6635400584028C8388848BF8
:102800004FF68F752C404FF6FC752C400D882C43ED
:102810004FF6FF552A400D894FF6FF7606EA05254B
:102820002A434D8806EA05252A431F4DA84202D0B7
:10283000234DA8421DD14FF2FF752A404D894FF616
:10284000FF7606EA05252A434FF6FF352A408D8894
:1028500006EA05252A434EF6FF752B404DF6FF7517
:102860002B408D8906EA05152B43CD8906EA05150F
:102870002B4383808483CD888587028470BD70B5A7
:10288000002200230024058C4EF6FF763540058497
:10289000038C8488828B48F6FF752A404FF6FF45EB
:1028A0002A400D8820E00000002C01400004004078
:1028B00000080040000C00400010004000140040E0
:1028C00000340140004C01400050014000540140E0
:1028D00000180040001C0040002000400040014063
:1028E00000440140004801404FF6FF7606EA052506
:1028F0002A434DF6FF752B400D8906EA05352B431B
:102900004D8806EA05352B43FA4DA84202D0FA4D10
:10291000A84208D14BF6FF752C408D894FF6FF7603
:1029200006EA85152C4384808283CD88A0F8405028
:10293000038470BD828B4FF2FF331A408283828BF7
:102940004FF6FF7303EA01231A4382837047F0B501
:102950000C461546002200210026078C4EF6FF7C0F
:1029600007EA0C070784828B018C4FF6FF7707EA92
:10297000043640F6FF473A404FF6FF7707EA05274F
:102980003A434FF6FF7707EA03373A43D94FB84245
:102990000ED0D94FB8420BD0B0F1804F08D0D74FEE
:1029A000B84205D0D64FB84202D0D64FB84206D171
:1029B0004DF6FF77394046F48057394305E047F636
:1029C000FF57394044F48057394382830184F0BD76
:1029D000828B4FF6F3731A408283828B0A43828381
:1029E0007047F0B50C461546002200210026078CE2
:1029F0004FF6FF6C07EA0C070784828B018C4FF6B9
:102A0000FF7707EA04264FF60C773A404FF6FF7738
:102A100007EA03172F433A43B64FB8420ED0B64FDA
:102A2000B8420BD0B0F1804F08D0B44FB84205D0B7
:102A3000B34FB84202D0B34FB84206D14FF6FF575A
:102A4000394046F48077394305E04FF2FF5739406B
:102A500044F48077394382830184F0BD028B4FF2C6
:102A6000FF331A400283028B4FF6FF7303EA012300
:102A70001A4302837047F0B50C4615460022002128
:102A80000026078C4FF6EF7C07EA0C070784028BC1
:102A9000018C4FF6FF7707EA041640F6FF473A40ED
:102AA0004FF6FF7707EA03373A434FF6FF7707EA17
:102AB00005273A438F4FB8420ED08F4FB8420BD004
:102AC000B0F1804F08D08D4FB84205D08C4FB8423E
:102AD00002D08C4FB84206D14FF6DF77394046F02E
:102AE0001007394305E04FF65F77394044F010078F
:102AF000394302830184F0BD028B4FF6F3731A4011
:102B00000283028B0A4302837047F0B50C461546D8
:102B100000220021068C4FF6FE773E400684028B91
:102B2000018C4FF60C7632407E1C06EA03162E43CB
:102B30003243704EB0420ED06F4EB0420BD0B0F167
:102B4000804F08D06D4EB04205D06D4EB04202D0DD
:102B50006C4EB04206D14FF6FD76314044F001068E
:102B6000314305E04FF6F576314044F0010631433C
:102B700002830184F0BD70B505460C465D48854270
:102B80000ED05D4885420BD0B5F1804F08D05B4830
:102B9000854205D05A48854202D05A48854200D124
:102BA00000E000BF208850B92389A28861882846A8
:102BB000FFF7ABFFE1882846FFF79EFF25E020885E
:102BC00004280AD12389A28861882846FFF753FF89
:102BD000E1882846FFF742FF17E0208808280AD13D
:102BE0002389A28861882846FFF7FBFEE1882846F2
:102BF000FFF7EEFE09E02389A28861882846FFF7E7
:102C0000A6FEE1882846FFF795FE70BD2DE9F0414C
:102C100005460C4600260127608808B9022600E018
:102C20000026A088012801D1022700E00127208882
:102C3000A0B92389A28861882846FFF766FFE1884A
:102C40002846FFF759FF23893A4631462846FFF7C1
:102C500012FFE1882846FFF701FF13E02389A288CD
:102C600061882846FFF707FFE1882846FFF7F6FE50
:102C700023893A4631462846FFF747FFE188284630
:102C8000FFF73AFFBDE8F0810A884B881A438B882A
:102C90001A43CB881A430B891A434B891A438B89F1
:102CA0001A43A0F8442070474FF6FF71818000213D
:102CB0000180C18041800172704700210180418004
:102CC0008180C180018141818181C1817047002162
:102CD00001804180012181800021C18001817047F4
:102CE0000021018041808180C180018141818181F9
:102CF00070470000002C01400034014000040040F7
:102D000000080040000C004021B1028842F001029E
:102D1000028004E002884FF6FE731A40028070477A
:102D200031B1B0F8442042F40042A0F8442005E05C
:102D3000B0F84420C2F30E02A0F8442070471AB144
:102D400083890B43838102E083898B4383817047AE
:102D50008182704741EA0203A0F8483070471AB1F7
:102D600083890B43838102E083898B43838170478E
:102D700001894FF6F8721140018170470A4600211F
:102D800001894FF68F73194011430181704730B5A7
:102D900004460D4629462046FFF7F0FF208940F003
:102DA0000700208130BD2DE9F04104460D4616464E
:102DB0001F46602D06D13B46012231462046FFF7D3
:102DC0005AFE05E03B46012231462046FFF79DFEB4
:102DD00029462046FFF7D2FF208940F007002081D6
:102DE000BDE8F08130B50C4600210189C9B24FF62B
:102DF000FF7505EA0325154325432943018130BDAD
:102E00002DE9F04105460E461746984600244346F4
:102E10003A4631462846FFF7E5FF2C894FF6F87011
:102E2000044044F007044FF68F70044044F07004EF
:102E30002C81BDE8F081F0B504460D4616461F46CC
:102E40003B46324629462046FFF7CCFF208940F416
:102E500080402081F0BD0185828270470A460021B2
:102E600001884FF68F731940114301807047F0B508
:102E70000C4615461E460021002200230189028BC4
:102E8000038C4FF6F877394021434FF6FC473A4020
:102E900040F201173A434FF6DD773B404FF6FF779C
:102EA00007EA06172F433B43018102830384F0BDE9
:102EB0000A460021018B4FF68F731940114301839D
:102EC00070470A460021018B48F6FF7319404FF600
:102ED000FF7303EA02231943018370470A46002166
:102EE000818B4FF68F7319401143818370470A46D7
:102EF0000021818B48F6FF7319404FF6FF7303EAF8
:102F0000022319438183704721B1028842F0800275
:102F1000028004E002884FF67F731A4002807047F7
:102F200021B1828842F00402828004E082884FF658
:102F3000FB731A408280704721B1828842F00802F8
:102F4000828004E082884FF6F7731A4082807047CF
:102F500021B1828842F00102828004E082884FF62B
:102F6000FE731A40828070470A460021018B4FF69B
:102F7000F77319401143018370470A460021018B02
:102F80004FF2FF7319404FF6FF7303EA0223194310
:102F9000018370470A460021818B4FF6F773194071
:102FA0001143818370470A460021818B4FF2FF73E2
:102FB00019404FF6FF7303EA0223194381837047D8
:102FC0000A460021018B4FF6FB7319401143018320
:102FD00070470A460021018B4FF6FF3319404FF628
:102FE000FF7303EA02231943018370470A46002155
:102FF000818B4FF6FB7319401143818370470A465A
:103000000021818B4FF6FF3319404FF6FF7303EA1F
:1030100002231943818370470A460021018B4FF632
:103020007F7319401143018370470A460021018BC9
:10303000C1F30E014FF6FF7303EA02231943018324
:1030400070470A460021818B4FF67F731940114368
:10305000818370470A460021818BC1F30E014FF630
:10306000FF7303EA02231943818370470A46002154
:10307000018C4FF6FD7319401143018470470A46D5
:103080000021018C4FF6F7731940114301847047FA
:103090000A460021018C4FF6DF7319404FF6FF738B
:1030A00003EA02131943018470470A460021018C88
:1030B0004FF67F7319404FF6FF7303EA021319436B
:1030C000018470470A460021018C4FF6FF531940D6
:1030D0004FF6FF7303EA02231943018470470A463F
:1030E0000021018C4FF2FF7319404FF6FF7303EA82
:1030F00002231943018470470A460021018C4DF6D2
:10310000FF7319404FF6FF7303EA0233194301843A
:10311000704730B5002301248C40A3B2048C9C433B
:103120000484048C02FA01F5ADB22C43048430BD52
:1031300030B5002304248C40A3B2048C9C43048447
:10314000048C02FA01F5ADB22C43048430BD70B595
:103150000346002000241846183001258D40ACB2EB
:103160001D8CA5431D8409B1082909D100EB61001C
:10317000056825F0700505600568154305600EE0DB
:103180000D1FC5F34E052844056825F4E04505608C
:1031900005684FF6FF7606EA02263543056070BDE6
:1031A00021B1028842F00202028004E002884FF658
:1031B000FD731A400280704721B1028842F0040278
:1031C000028004E002884FF6FB731A4002807047C9
:1031D00021B1828842F08002828004E082884FF62A
:1031E0007F731A408280704702884FF6F7731A4047
:1031F000028002880A430280704782884FF68F73EC
:103200001A40828082880A438280704702894FF682
:10321000F8731A40028102890A43028170470289C9
:103220004FF67F731A40028102890A430281704778
:103230008184704781857047818670470187704718
:1032400081877047A0F84010704702884FF6FF430F
:103250001A40028002880A43028070470146888E25
:1032600070470146088F70470146888F70470146B6
:10327000B1F8400070470146888C70470146088DC0
:10328000704702460020138A0B400BB1012000E07A
:1032900000207047CA430282704730B502460020C2
:1032A00000230024158A05EA0103958905EA010433
:1032B00013B10CB1012000E0002030BDCA430282EE
:1032C000704700002DE9F04104460D46FEF7FAF87C
:1032D0004FF49670FEF74BFA3120FC49087000203D
:1032E000FB490860FB490860FB490860FB48068809
:1032F000FB4807886000FB4908602846FEF73EF857
:103300001EE0F6480088F8490860F5480088F7494B
:103310000860F0480068F0490968084400EB801034
:1033200000EB4000F049096801EBC000801B384405
:10333000EE490968401AE64908602846FEF71EF87B
:10334000E3480068E74909688842DADBFEF7BAF823
:103350003020DE4908704FF49670FEF708FABDE899
:10336000F08110B5FEF7AEF84FF49670FEF7FFF956
:10337000DB480088DD4908600846006800F2B63482
:10338000B4F5C36F01DDA4F5C364FEF7CCF81420D7
:10339000FEF7EDF903E0D2480088D4490860601FC9
:1033A000D24909688842F6DCD0480168601D814234
:1033B000F1DCFEF787F84FF49670FEF7D8F910BDF0
:1033C00010B5FEF77FF84FF49670FEF7D0F9C348BA
:1033D0000088C549086008460068A0F55C74002CA8
:1033E00001DA04F5C364FEF787F81420FEF7BFF98D
:1033F00003E0BA480088BC490860601FBA49096800
:103400008842F6DCB8480168601D8142F1DCFEF7B5
:1034100059F84FF49670FEF7AAF910BD10B5FDF7F4
:10342000BEFAB3A200210846FDF75BFB0020B249BB
:1034300008603120B149087000BFAF48006800281B
:10344000FBD0FDF75CFD3020AC4908704FF47A707A
:10345000FEF78DF931209D490870A94908704FF495
:10346000FA70FEF784F90020A649086003E04FF4E3
:10347000AA70FDF783FFA34800680328F7DB30201C
:10348000924908704FF4AA71FA20FFF71BFFFEF76C
:1034900019F8FFF795FF31208C490870C820FEF716
:1034A00066F94FF4AA7140F64850FFF70BFFFEF79C
:1034B00009F831209149087001208F4908604FF4C4
:1034C000FA70FEF754F900BF8B4800680128FBD062
:1034D00030208A490870FDF7A8FD4FF47A70FEF796
:1034E00046F9FDF79BFDFFF76BFF4FF4E170FEF728
:1034F0003EF9FFF765FF3120744908704FF4FA7008
:10350000FEF735F903E04FF4AA70FDF737FF7D4869
:1035100000680328F7DB30206C4908704FF4AA716B
:10352000FA20FFF7CFFEC820FEF721F9FFF719FFB9
:10353000312066490870C820FEF719F94FF49671DA
:103540000801FFF7BFFEFDF7BDFFFDF7FAFC10BD58
:1035500010B5FDF724FA6CA200210846FDF7C1FA68
:1035600000206549086031206449087000BF624846
:1035700000680028FBD0FDF7C2FC30205F490870CE
:103580004FF47A70FEF7F3F83120504908705C4927
:1035900008704FF4FA70FEF7EAF800205949086005
:1035A00003E04FF4AA70FDF7E9FE564800680328CF
:1035B000F7DB3020454908704FF4AA71FA20FFF775
:1035C00081FEFFF7CEFE3120404908704FF4AA710A
:1035D00040F64850FFF776FEFDF774FF312047496B
:1035E00008700120444908604FF4FA70FEF7BFF8F4
:1035F00000BF414800680128FBD030203F490870D7
:10360000FDF713FD4FF47A70FEF7B1F8FDF706FDF4
:10361000FFF7D6FE4FF4E170FEF7A9F8FFF7D0FEF2
:1036200031202A4908704FF4FA70FEF7A0F803E041
:103630004FF4AA70FDF7A2FE324800680328F7DBBA
:103640003020224908704FF4AA71FA20FFF73AFEA1
:10365000FFF7B6FE31201D4908704FF4AA714FF4F0
:103660009650FFF72FFEFDF72DFFFDF76AFC10BD0A
:1036700010B53120154908702149087003E04FF456
:10368000AA70FDF77BFE1F4800680328F7DB302097
:103690000E4908701A4908704FF4AA714FF4167059
:1036A000FFF710FEFFF75DFE31200849087014494E
:1036B00008704FF4AA7140F22C60FFF703FE31202E
:1036C000024908700E49087026E00000150000202D
:1036D00008000020A4010020A801002024080040C8
:1036E000240400400C0000201C00002020000020CA
:1036F0004745543A3100000010000020140000201B
:1037000017000020940100204745543A3200000081
:103710004FF4AA70FDF732FEFD4800680328F7DB7E
:103720004FF4AA7141F21850FFF7CCFDFDF7CAFE25
:103730003020F8490870F849087010BD10B53120E4
:10374000F4490870F449087003E04FF4AA70FDF7DB
:1037500015FEEF4800680328F7DB3020ED490870BC
:10376000ED4908704FF4AA714FF41670FFF7AAFDE7
:10377000FFF726FE3120E7490870E74908704FF44B
:10378000AA7140F22C60FFF79DFD3120E1490870DD
:10379000E149087003E04FF4AA70FDF7EFFDDC4843
:1037A00000680328F7DB4FF4AA7141F21850FFF7C5
:1037B00089FDFDF787FE3020D6490870D64908708C
:1037C00010BD10B53120D3490870D349087003E00B
:1037D0004FF4AA70FDF7D2FDD04800680028F7D05A
:1037E000CF4800680028F3D03020CA490870CA4981
:1037F00008704FF4AA714FF41670FFF763FDFFF7DE
:10380000DFFD3120C3490870C34908704FF4AA7125
:1038100040F22C60FFF756FD3120BE490870BE49CA
:10382000087003E04FF4AA70FDF7A8FDBD480068DA
:103830000028F7D0BC4800680028F3D03020B549F4
:103840000870B54908704FF4AA714FF4AF60FFF7E4
:1038500039FDFFF786FD3120AE490870AE4908708A
:103860004FF4AA7140F22C60FFF72CFD3120A949DA
:103870000870A949087003E04FF4AA70FDF77EFDB7
:10388000A34800680328F7DB3020A2490870A2494A
:1038900008704FF4AA71FA20FFF714FD31209D49FA
:1038A00008709D4908704FF4AA7140F22C60FFF730
:1038B00009FD3120974908709749087003E04FF4DB
:1038C000AA70FDF75BFD924800680328F7DB4FF410
:1038D000AA7141F21850FFF7F5FCFDF7F3FD302017
:1038E0008C4908708C49087010BD10B53120894989
:1038F00008708949087003E04FF4AA70FDF73EFD97
:10390000864800680028F7D0854800680028F3D072
:10391000302080490870804908704FF4AA714FF434
:103920001670FFF7CFFCFFF74BFD31207949087087
:10393000794908704FF4AA7140F22C60FFF7C2FC7D
:103940003120744908707449087003E04FF4AA707C
:10395000FDF714FD714800680028F7D07048006832
:103960000028F3D030206B4908706B4908704FF481
:10397000AA714FF4AF60FFF7A5FCFFF721FD3120DE
:1039800064490870644908704FF4AA7140F22C60D1
:10399000FFF798FC31205F4908705F49087003E029
:1039A0004FF4AA70FDF7EAFC594800680328F7DBDA
:1039B000302058490870584908704FF4AA71FA200D
:1039C000FFF780FC312053490870534908704FF4C9
:1039D000AA7140F22C60FFF775FC31204D49087048
:1039E0004D49087003E04FF4AA70FDF7C7FC484842
:1039F00000680328F7DB4FF4AA7141F21850FFF773
:103A000061FCFDF75FFD30204249087042490870B3
:103A100010BD10B531203F4908703F49087003E0E0
:103A20004FF4AA70FDF7AAFC3E4800680028F7D0C2
:103A30003D4800680028F3D03020364908703649E8
:103A400008704FF4AA714FF41670FFF73BFCFFF7B4
:103A500088FC31202F4908702F4908704FF4AA7153
:103A600040F22C60FFF72EFC31202A4908702A49C9
:103A7000087003E04FF4AA70FDF780FC2948006845
:103A80000028F7D0284800680028F3D030202149CA
:103A90000870214908704FF4AA714FF4AF60FFF726
:103AA00011FCFFF75EFC31201A4908701A490870B2
:103AB0004FF4AA7140F22C60FFF704FC3120154945
:103AC00008701549087003E04FF4AA70FDF756FC22
:103AD0000F4800680328F7DB30200E4908700E49B4
:103AE00008704FF4AA71FA20FFF7ECFB3120094966
:103AF0000870094908704FF4AA7140F22C60FFF772
:103B0000E1FB3120034908700349087012E000000E
:103B100094010020150000201700002080010020E3
:103B2000840100208C010020900100204FF4AA7035
:103B3000FDF724FC544800680328F7DB4FF4AA7112
:103B400041F21850FFF7BEFBFDF7BCFC30204F4997
:103B500008704F49087010BD10B531204B490870EE
:103B60004B49087003E04FF4AA70FDF707FC494881
:103B700000680028F7D0484800680028F3D03020BB
:103B800042490870424908704FF4AA714FF4167008
:103B9000FFF798FBFFF7E5FB31203C4908703C49F3
:103BA00008704FF4AA7140F22C60FFF78BFB3120B4
:103BB000364908703649087003E04FF4AA70FDF7E3
:103BC000DDFB364800680028F7D03548006800283B
:103BD000F3D030202D4908702D4908704FF4AA7198
:103BE0004FF4AF60FFF76EFBFFF7EAFB3120274988
:103BF0000870274908704FF4AA7140F22C60FFF753
:103C000061FB3120214908702149087003E04FF41D
:103C1000AA70FDF7B3FB1C4800680328F7DB3020CF
:103C20001A4908701A4908704FF4AA71FA20FFF770
:103C300049FB312015490870154908704FF4AA70E6
:103C4000FDF79CFB4FF4AA7140F22C60FFF73AFBA2
:103C500031200E4908700E49087003E04FF4AA7035
:103C6000FDF78CFB084800680328F7DB4FF4AA71C6
:103C700041F21850FFF726FBFDF724FC30200349E2
:103C800008700349087010BD940100201500002041
:103C9000170000208C0100209001002080010020EE
:103CA0008401002010B5FCF77AFEFEA2022100205C
:103CB000FCF717FFFDF7B9F90020FC490860312037
:103CC000FB49087000BFF94800680028FBD0FDF7E9
:103CD00016F93020F6490870FDF7A0F94FF47A7014
:103CE000FDF745FD3120F3490870F34908704FF4A2
:103CF000FA70FDF73CFD0020F049086003E04FF446
:103D0000AA70FDF73BFBED4800680328F7DB302085
:103D1000E84908704FF4AA71FA20FFF7D3FA4FF47C
:103D2000AA7141F27C50FFF7CDFA4E20E4490870A9
:103D300040F2DC50FDF71BFD40F2DC50FDF717FDB3
:103D400040F2DC50FDF713FD3120DA490870002005
:103D5000DA49086003E04FF4AA70FDF70FFBD7487B
:103D600000680328F7DB4FF4AA714FF47A70FFF76D
:103D7000A9FAD34800784C2840D10320D1490860E3
:103D8000FFF71EFB3120CB490870C820FDF7EFFC80
:103D90004FF4AA7140F64850FFF794FAFDF792FBF2
:103DA0003120C34908700120C04908604FF4FA70FF
:103DB000FDF7DDFC00BFBD4800680128FBD03020C6
:103DC000BB490870FDF731F94FF47A70FDF7CFFC6D
:103DD000FDF724F9FFF7F4FA4FF4E170FDF7C7FCA3
:103DE000FFF7EEFA3120B34908704FF4FA70FDF78F
:103DF000BEFCFFF73DFCB348006810BDB04800783A
:103E0000522840D10420AF490860FFF7AAFA3120B8
:103E1000A8490870C820FDF7AAFC4FF4AA7140F623
:103E20004850FFF74FFAFDF74DFB3120A0490870CD
:103E300001209E4908604FF4FA70FDF798FC00BF1E
:103E40009A4800680128FBD0302099490870FDF796
:103E5000ECF84FF47A70FDF78AFCFDF7DFF8FFF716
:103E6000AFFA4FF4E170FDF782FCFFF7A9FA3120B9
:103E7000904908704FF4FA70FDF779FCFFF75EFC8B
:103E800090480068B9E74FF4AA7141F27C50FFF7FF
:103E900019FA4E208A49087040F2DC50FDF767FCA1
:103EA00040F2DC50FDF763FC40F2DC50FDF75FFCB4
:103EB00031208049087000208049086003E04FF4F9
:103EC000AA70FDF75BFA7D4800680328F7DB4FF422
:103ED000AA714FF47A70FFF7F5F9794800784C2809
:103EE00076D1FFF76DFA312072490870C820FDF7CE
:103EF0003EFC4FF4AA7141F27C50FFF7E3F94E20EB
:103F00006F49087040F2DC50FDF731FC40F2DC50A4
:103F1000FDF72DFC40F2DC50FDF729FC312065490E
:103F2000087000206549086003E04FF4AA70FDF7AF
:103F300025FA624800680328F7DB4FF4AA714FF4B2
:103F40007A70FFF7BFF95E4800784C2841D107200E
:103F50005C490860FFF734FA312056490870C820E0
:103F6000FDF705FC4FF4AA7140F64850FFF7AAF997
:103F7000FDF7A8FA31204E49087001204B4908602E
:103F80004FF4FA70FDF7F3FB00BF484800680128C2
:103F9000FBD0302046490870FDF747F84FF47A709F
:103FA000FDF7E5FBFDF73AF8FFF70AFA4FF4E17089
:103FB000FDF7DDFBFFF704FA31203E4908704FF4AE
:103FC000FA70FDF7D4FBFFF724FD3E48006814E7C4
:103FD00044E03B480078522840D105203949086028
:103FE000FFF7BFF9312033490870C820FDF7BFFB48
:103FF0004FF4AA7140F64850FFF764F9FDF762FAF2
:1040000031202B4908700120284908604FF4FA70CC
:10401000FDF7ADFB00BF254800680128FBD030202C
:1040200023490870FDF701F84FF47A70FDF79FFB04
:10403000FCF7F4FFFFF7C4F94FF4E170FDF797FBCD
:10404000FFF7BEF931201B4908704FF4FA70FDF7F5
:104050008EFBFFF7B6FB1B480068CEE618480078D9
:1040600052287CD1FFF77DF9312012490870C82011
:10407000FDF77DFB4FF4AA7141F27C50FFF722F966
:104080004E200F49087040F2DC50FDF770FB40F203
:10409000DC50FDF76CFB40F2DC50FDF768FB312093
:1040A000044911E052656164793E3E001000002031
:1040B00014000020150000201700002094010020AB
:1040C000AC010020D0010020087000204F4908609A
:1040D00003E04FF4AA70FDF751F94C48006803283B
:1040E000F7DB4FF4AA714FF47A70FFF7EBF848480A
:1040F00000784C2842D1082046490860FFF760F953
:10410000312045490870C820FDF731FB4FF4AA71F2
:1041100040F64850FFF7D6F8FDF7D4F931203F4973
:10412000087001203E4908604FF4FA70FDF71FFB4C
:1041300000BF3B4800680128FBD030203749087099
:10414000FCF773FF4FF47A70FDF711FBFCF766FF85
:10415000FFF736F94FF4E170FDF709FB00E052E09C
:10416000FFF72EF931202C4908704FF4FA70FDF753
:10417000FEFAFFF7F1FC274800683EE62448007885
:10418000522840D1062023490860FFF7EAF8312081
:1041900021490870C820FDF7EAFA4FF4AA7140F6E9
:1041A0004850FFF78FF8FDF78DF931201B49087053
:1041B00001201B4908604FF4FA70FDF7D8FA00BFE0
:1041C000174800680128FBD0302014490870FCF71C
:1041D0002CFF4FF47A70FDF7CAFAFCF71FFFFFF7C8
:1041E000EFF84FF4E170FDF7C2FAFFF7E9F831207C
:1041F000094908704FF4FA70FDF7B9FAFFF775FB3B
:1042000004480068F9E50020F7E50000940100206B
:10421000AC010020D0010020150000201400002077
:1042200010000020704700001CB50C46064B7B4474
:1042300069460090204600F0EEF9044600206946E9
:1042400000F0FCF920461CBD0B0400000FB404492B
:1042500010B503AA029800F0F7F910BC5DF814FB42
:10426000B40100202DE9F0410646002410687529AC
:10427000314616A510D000F020F9002802DA40429D
:1042800013A507E031688A0701D512A502E04907A6
:1042900004D511A5012401E000F018F900210A223B
:1042A00006F1240709E0B0FBF2FCB0FBF2F302FBDD
:1042B0001C00303078541846491C0028F3D123469E
:1042C0002A463046BDE8F04100F032B90000000057
:1042D0002D0000002B000000200000002DE9F05F01
:1042E000894604464FF0000ADFF874B1FB44C0F879
:1042F00020A02046E1688847002874D0252806D0F1
:10430000D4E901219047206A401C2062F1E7002691
:104310005F462046E16888472028054607DB312DA7
:1043200005D2781910F8200C08B10643F1E7B00760
:1043300001D526F00406C4F81CA00027C4F818A074
:104340002A2D09D0284601F061FA38B304EB87081A
:10435000303DC8F8185019E059F8041B204604EB0A
:1043600087029161E1688847012F054618D1E0690D
:10437000002820DA26F020061DE0D8F8180000EB0F
:10438000800005EB40003038C8F818002046E1688E
:104390008847054601F03AFA0028EED1012F0AD0ED
:1043A0002E2D08D12046E16888477F1C0546022F44
:1043B00046F02006C4DBA069002803DA404246F03C
:1043C0000106A061F00701D026F010066C2D0BD07D
:1043D000682D09D04C2D39D06A2D35D0742D35D0AB
:1043E0007A2D33D016E038E0E1682F462046884722
:1043F000B842054609D16C2F26D04FF48060E168A1
:10440000064320468847054604E06C2F1AD04FF437
:10441000807006430DB3A5F14100192802D820355C
:1044200046F400664A462946204626604E46FBF77B
:10443000B7FE80B101280BD0F61D26F0070000F171
:10444000080956E74020E4E78020D8E70020D6E7B7
:1044500006F104094DE7284652E7206ABDE8F09FBF
:104460001C200000704770477047704770B50446C5
:1044700085690068C10601D5302600E02026C00706
:1044800007D070BDD4E9012130469047206A401C16
:1044900020626D1EF6D570BD70B504468569007842
:1044A000C00707D170BDD4E9012120209047206AC0
:1044B000401C20626D1EF6D570BD09684A0501D505
:1044C00040B27047C905FCD500B2704709684A057B
:1044D00001D5C0B27047C905FCD580B2704770B530
:1044E0000C460546012A05D02878800600D5EA69E1
:1044F000002302E0012305E05B1C934202D2E05C52
:104500000028F9D1A869E618C01AA861286A1844D9
:1045100028622846FFF7AAFF04E0D5E9012114F834
:10452000010B9047B442F8D32846FFF7B5FF70BDA2
:104530002DE9F0470D4699469246044600F12408BD
:104540000168880604D5E06921F01001216000E0CF
:104550000120A84201DD471B00E00027A1697A196C
:1045600002EB0900081AA0612078C00602D4204698
:10457000FFF77CFF002608E0D4E901211AF80600C5
:104580009047206A401C761C20624E45F4DB207860
:10459000C0060AD52046FFF769FF06E0D4E90121ED
:1045A00030209047206A401C2062381EA7F1010786
:1045B000F4DC07E0D4E9012118F805009047206AEF
:1045C000401C2062281EA5F10105F3DC2046FFF700
:1045D00063FF2078000602D50220BDE8F0870120A5
:1045E000FBE711680268006A530501D508700AE00C
:1045F000D30501D5088006E0130603D5C217C1E92B
:10460000000200E0086001207047000001694A1CB8
:1046100002610878704700B58FB0CDE90131002103
:10462000059105497944CDE9031011466846FFF725
:1046300055FE0FB000BD0000E5FFFFFF0A6802F85D
:10464000010B0A6070470000074B70B50D467B44B4
:10465000FFF7E1FF0446284600F0A6FB10B14FF03B
:10466000FF3070BD204670BD7BD1FFFF2DE9FF5F9D
:1046700015468A460446DFF8AC80F8440027D8E99E
:1046800000103E46CDE9001010E03AF816106A46D8
:1046900002A800F08DFB411C07D02178890603D5C4
:1046A000E269391891420DD80744761C20788006BB
:1046B00002D5E069B84205DDAE42E6DB3AF8160005
:1046C0000028E2D1A069C01BA0612046FFF7CEFE02
:1046D000D8E90010CDE90010002017E03AF81810D2
:1046E0006A4602A800F064FBB0F1FF3F81460BD0A0
:1046F00000250DF1080B05E0D4E901211BF80500A8
:1047000090476D1C4D45F7D308F10100B04280463B
:10471000E4DB206A384420622046FFF7BDFEBDE896
:10472000FF9F0000A21C00002DE9F0418046D21D31
:1047300022F007020025D2E90002F52915A614D0BF
:10474000011E72F1000106DA0023D0EB030063EBD7
:10475000020211A608E0D8F800108B0701D50FA6B9
:1047600002E0490701D50EA601251146002408F1F3
:10477000240704E000F098F830323A55641C50EAFF
:104780000102F7D12B46324621464046BDE8F041B2
:10479000FFF7CEBE000000002D0000002B0000003F
:1047A0002000000030B4002100F1240408E002F0F1
:1047B0000705D208303542EA4372DB086554491CCC
:1047C00052EA0305F3D10468002310A2250707D598
:1047D000A40600D421B1C46901230DA2641EC461E2
:1047E00030BCFFF7A5BE10B5044621461068FFF7A0
:1047F0006DFE02462046BDE810400023D2E7D21DE0
:1048000022F00701D1E90023CCE7000000000000FE
:1048100030000000F0B40D460188090502D5214C96
:104820007C4402E01F4C7C440E34002100F124063D
:1048300008E002F00F071209E75D42EA03721B0964
:104840007754491C52EA0307F3D102780023120778
:1048500004D5702D06D009B1022311342246F0BCD4
:10486000FFF766BE01231034F8E770B504460D4625
:1048700021461068FFF72AFE024629462046BDE879
:1048800070400023C6E7D21D22F00703D3E90023BE
:10489000C0E70368126843F0200303600823C36184
:1048A0000023B7E7041B000030B5B0F10A024FEA5D
:1048B000900E71F100034EEA817EB0EB0E0061EBC9
:1048C00091014FEA101E4EEA017E10EB0E0041EB03
:1048D00011114FEA102E4EEA016E10EB0E0041EB63
:1048E00011214FEA104E4EEA014E10EB0E0041EB43
:1048F0001141401841F100014FEAD00040EA4170F7
:104900004FEAD10110EB80054FEA810444EA90742C
:1049100044EB01046D1944EB0404521BA3414FF016
:10492000000348BF0A3200D530BD401C41F10001F0
:1049300030BD70472DE9FF4F0C461E464FF0FF3744
:104940008BB0D2E90001DDF860800A908A46C1F39D
:104950000A5505B93D46002108464FF00000BAF15E
:10496000000F00F4400005DA00EB80004FF4400136
:1049700001EA50004FEA9059B9F1010F00DDB94644
:104980000A9850EA4A000ED044F61050A5F2FF35BE
:1049900045432F14B8F1000F1ED07542291E1EDDAD
:1049A000C9F100021CE0B8F1010F4FF0000001D086
:1049B000302103E0F24305E02154401CB042FBDB10
:1049C00030460022002121540B99C1F80880C1E92A
:1049D00000200FB0BDE8F08FBD1B6D1CDEE74A461E
:1049E00000DA694206A800F075FA06AB93E8070002
:1049F00003AB83E8070050460A9900F02BFB8DE8D3
:104A00000700A0F500501F3800900398002D0ADD24
:104A100042F21F014A460844002303A90390684656
:104A200000F094FD09E0A0F500504A461F3800232D
:104A300003A90390684600F09EFD8DE8070000047E
:104A4000000C03D04FF0FF30410800E01046B8F1F1
:104A5000000F03D00022009215461EE0751E05D4FB
:104A6000FFF722FF303262556D1EF9D5B3460122A1
:104A7000084302D000227F1C04E02078302801D1B6
:104A800000227F1E002A099784D01DE0112D07DA2D
:104A9000FFF70AFF303262556D1C50EA0102F5D172
:104AA000084302D00098C8B10EE00021681E05E05E
:104AB000235C625C63542254401E491C8142F7DB34
:104AC000AB46A81B401E0990002004F80B000B9871
:104AD000099AC0F80880C0E9002B7AE711264FF048
:104AE000000857E72DE9F04F88460446D21D22F012
:104AF000070191B0D1E90001CDE90A0100F072FE91
:104B000002460B98C00F01D02D2007E020688107D6
:104B100001D52B2002E0202101EAC000032A0990E0
:104B200001D0072A05DB03464146204600F092F9F2
:104B30000BE12078800601D5E06900E00620B8F19D
:104B4000650F814606D0B8F1660F18D0B8F1670F2F
:104B500070D131E00020B9F1110F009001DB112379
:104B600001E009F101030AAA01A90CA8FFF7E2FE7E
:104B7000DDE90C70002609F10105834647E00120BC
:104B80004B4600904FF000470AAA01A90CA8FFF776
:104B9000D1FEDDE90DB00C995D46002610B909F192
:104BA00001000D18B9EB050003D4C0F1FF3609F17F
:104BB0000105A5EB09002BE0B9F1010F01DA4FF077
:104BC00001090020B9F1110F0090484601DD1123C1
:104BD00000E003460AAA01A90CA8FFF7ABFEDDE935
:104BE0000C704D4600268346207800070AD4AB455A
:104BF00000DA5D4601A8012D04DD411911F8011C00
:104C0000302907D04F4502DA17F1040F04DA0120EA
:104C100082460FE06D1EEEE7002F02DCED1B3E44E6
:104C200003E0781CA84200DD7D1CB81B00F1010ADE
:104C30004FF000472078000703D4AA4501DB4FF06E
:104C4000FF3A0021B7F1004F0DF143088DF84310F2
:104C500024D002202B23002F01DA7F422D230A21AA
:104C6000021EA0F1010000DC5FB197FBF1FC97FB95
:104C7000F1F201FB1C7C17460CF1300C08F801CD59
:104C8000EEE7A8F1010003702188090501D545214F
:104C900000E06521A0F1010800F8011C09980FA9A6
:104CA000A1EB0807FF1D00B10120411901EBEA70DB
:104CB000A1693844081A401EA0612078C00602D4B9
:104CC0002046FFF7D3FB099828B1D4E9012190478A
:104CD000206A401C20622078C00622D52046FFF7BB
:104CE000C5FB1EE0002E04DBB34502DD01A8805D9C
:104CF00000E03020D4E901219047206A401C206266
:104D0000761CAAF101005FEA000A0AD100F09EF8C1
:104D1000C0680168405CD4E901219047206A401CCA
:104D20002062281EA5F10105DCDC07E0D4E90121A1
:104D300018F8010B9047206A401C2062381EA7F12A
:104D40000107F3DC2046FFF7A7FB032011B041E683
:104D500010B5436913B1AFF3008001E0FFF7BFFB6B
:104D6000012010BD127800F124010A7000224A705F
:104D70000122EDE711684FF0FF32E9E710B5436912
:104D800013B1AFF3008001E0FFF770FC012010BD0C
:104D9000128800F1240182840022C2840122EDE7FE
:104DA00011684FF0FF32E9E7007B00F080007047A8
:104DB00070B516460C46054600F040F8036893F8B7
:104DC0000101012806D0FF2C0FD8185D68B1012021
:104DD0002C7070BDD3F807013246214603F2071349
:104DE00003442846BDE8704018474FF0FF3070BDBF
:104DF000754600F0EBF8AE4605006946534620F0D4
:104E00000700854618B020B5FCF74AFDBDE82040F4
:104E10004FF000064FF000074FF000084FF0000B76
:104E200021F00701AC46ACE8C009ACE8C009ACE829
:104E3000C009ACE8C0098D467047000010B500F00D
:104E400005F8001D10BD00BF010A000000487047B2
:104E5000F40100202DE9F0411F46044603260168B5
:104E6000072A01F4006004DB08B116A505E016A5C9
:104E700003E008B115A500E015A521F010002060A1
:104E8000A069C01EA0610FB1401EA0612046FFF7BF
:104E9000EDFA4FB1D4E9012138469047206A401C11
:104EA0002062C01C206206E0206AFAE7D4E90121F2
:104EB00015F8010B9047761EF8D22046FFF7ECFA62
:104EC000BDE8F0814E414E006E616E00494E4600D5
:104ED000696E66002DE9F047814616468AB035486E
:104EE00078440DC88DE80D0032487844801C03AC2E
:104EF0000DC884E80D0041F69B300844372190FB33
:104F0000F1F290FBF1F5A5F1800501FB12041B3CC9
:104F100002D56442012000E00020DFF898A080461E
:104F20000027FA44AAF1BE0A0EE0E0070AD0324692
:104F3000684607EB470101230AEB810100F01BFBE8
:104F40008DE8070064107F1C002CEED1194F7F44C0
:104F5000AE3F19E0E80715D007EB04100DF1180A71
:104F600090E80E008AE80E00C068F04201D198195E
:104F700008903246012306A903A800F0FCFA03AB0F
:104F800083E807006D10641C002DE3D14FF001038E
:104F900032466946B8F1000F03A802D000F0D6FAF5
:104FA00001E000F0E8FAC9E90001C9F808200AB0F8
:104FB000BDE8F087E814000010B50446AFF30080A8
:104FC0002046BDE81040FBF74EB90000004870478E
:104FD000D40100204FF0013C50F8042B51F8043B61
:104FE0009A4221D1A2EB0C03934313EACC1317D1BD
:104FF00050F8042B51F8043B9A4215D1A2EB0C0354
:10500000934313EACC130BD150F8042B51F8043B13
:105010009A4209D1A2EB0C03934313EACC13DBD0E1
:105020004FF00000704700BFD01A01BAB1FA81F109
:1050300001F0180122FA01F0CB40C1F12001DBB2EE
:10504000C0B2C01A2CFA01F3D11A914311EAC3116C
:10505000E6D170475FEA400C08BF91F0000F4FEABD
:105060008C234FEAC12243EA51514FEA1C5018BF2A
:1050700000F5F0404FEA300018BF41F000415FEA10
:105080006C5C00F02980BCF1FF3F08BF40F080401D
:105090007047130C06BF12044FF0100C4FF0000CB9
:1050A000130E04BF12020CF1080C130F04BF1201FF
:1050B0000CF1040C930F04BF92000CF1020CD30FFF
:1050C00004BF52000CF1010C11464FF00002A0F198
:1050D0001F00A0EB0C00704711F0004F08BF704795
:1050E00031F000413FF4D5AF0B0C06BF09044FF07F
:1050F000100C4FF0000C0B0E04BF09020CF1080C51
:105100000B0F04BF09010CF1040C8B0F04BF8900C5
:105110000CF1020CCB0F04BF49000CF1010CCCF1D7
:105120002003A0EB0C0022FA03F302FA0CF241EA8E
:10513000030100F10100704720F07F4C80EA03007A
:1051400023F07F47ACEB070303F57C5300F00040EE
:1051500003F1FF032DE980494FEA154B09B44FEAEB
:10516000144325EA0B4E24EA03480FF2042606EB0B
:10517000132749083E785FEA320203FB0667C7F54A
:10518000000707FB06F64FEA54374FEAD64606F10A
:10519000020607FB066CCCF1005C4FEA1C472CEAC8
:1051A000074C07FB06F40CFB06F504EB15464FEA2B
:1051B000961634BF00204FF000404FEAD13706FB6F
:1051C00007FC4FEA1C4C0CFB0BF7D21B03FB0CF744
:1051D00061EB07010CFB0EF7B0EB074072EB1742D7
:1051E0000CFB08F734BFA2EB0742B2EB074261EBBE
:1051F00017414FEA0C444FEA910706FB07FC4FEAC0
:105200001C4C0CFB0BF7B0EBC74072EB573203FBA7
:105210000CF734BFA2EBC742B2EBC74261EB573188
:105220000CFB0EF7B0EBC70072EB57720CFB08F7E4
:1052300034BFA2EBC702B2EBC70261EB5771039F09
:105240004FEA816141EA921104EBCC044FEAD13775
:105250004FEA826206FB07FC42EA90124FEA806046
:105260004FEA1C4C0CFB0BF7D21B03FB0CF761EB5A
:1052700007010CFB0EF7B0EB074072EB17420CFB7B
:1052800008F734BFA2EB0742B2EB074261EB1741CC
:105290004FEA8C554FEA910704EB9C2406FB07FC70
:1052A0004FEA1C4C0CFB0BF7B0EBC74072EB5732CC
:1052B00003FB0CF734BFA2EBC742B2EBC74261EB72
:1052C00057310CFB0EF7B0EBC70072EB57720CFBBB
:1052D00008F734BFA2EBC702B2EBC70261EB57710C
:1052E00015EB4C254FEA816141EA92114FEA826247
:1052F0004FEAD13742EA901206FB07FC44F1000462
:105300004FEA80604FEA1C4C0CFB0BF7D21B03FBEF
:105310000CF761EB07010CFB0EF7B0EB074072EBEB
:1053200017420CFB08F734BFA2EB0742B2EB07426F
:1053300061EB174115EB1C154FEA813141EA9241AF
:105340004FEA823242EA90424FEA80304FEA0C76CE
:1053500044F1000448EA03434EEA0B484FF0000EC4
:10536000B2EB080C71EB030724BF624639464EEBE3
:105370000E0E4FF0000B0018524149414BEB0B0B46
:10538000B2EB080C71EB03077BF1000B24BF624604
:1053900039464EEB0E0E4FF0000B001852414941BA
:1053A0004BEB0B0BB2EB080C71EB03077BF1000B23
:1053B00024BF624639464EEB0E0E51EA020718BF73
:1053C00046F0010616EB0E7655F1000254F100018D
:1053D00003D5BDE88901BDE80088BDE88901BDE8C5
:1053E0000048B619524141EB0101A3F10103704796
:1053F00080807F7E7D7C7B7A797877767675747312
:10540000727171706F6E6E6D6C6C6B6A6A696868D0
:10541000676666656464636362616160605F5F5E66
:105420005E5D5D5C5C5B5B5A5A59595858575756DC
:105430005655555554545353525252515150505041
:105440004F4F4F4E4E4D4D4D4C4C4C4B4B4B4A4A93
:105450004A494949484848474747474646464545D7
:105460004544444444434343434242424241414110
:10547000002B9C4630D477002BD01CB54FEA370761
:1054800003B44FF010004FF01001BAF1000F06D036
:10549000BCF1000FDCBF40F0080040F008014FF005
:1054A00000000FBCBDE810400BF1010BBBF1010F78
:1054B00008BF5FEA170722BF12F1010211F10101D3
:1054C0004FF0004143F1000300F0004043EA0000C8
:1054D0007047F9D35708D0E746EA064613F1400F64
:1054E0004FEA16461FDD13F1200FDFBF16430A46B1
:1054F000002120335B42BED0C3F1200746EA0646B6
:1055000002FA07F74FEA164646EA0706C3F12007F4
:1055100022FA03F201FA07F721FA03F14FF0000330
:1055200042EA0702A7E746EA020646EA06464FEACB
:10553000164646EA0106BCBF46EA0646360C4FF060
:1055400000034FF000024FF0000194E72DE9804C7A
:105550009A46934670B491E8380007C831EA400C87
:1055600048BF34EA430C03D5FFF7E6FDFFF780FFA1
:10557000F0BCBDE8008C2DE9804C9A46934670B48F
:1055800091E8380007C810F0804F08BF13F0804F33
:1055900003D100F005F8FFF76BFFF0BCBDE8008C0D
:1055A00020F07F4780EA030023F07F4C07EB0C03D9
:1055B000A3F57C5300F00040A3F1FE0392F0000F2E
:1055C00000F0B38095F0000F00F077802DE90149DD
:1055D0004FEA11404FEA144621EA004800FB06FC5E
:1055E00024EA064708FB06F607FB08F800FB07F766
:1055F00018EB06484CEB164C4FEA124B18EB0748D9
:105600004FEA15464CEB174022EA0B4E0BFB06FC0B
:1056100025EA06470EFB06F607FB0EFE0BFB07F717
:105620001EEB064E4CEB164C4FF000061EEB074EE1
:105630004CEB174B18EB0B0840F1000018EB0E0B6E
:1056400058EB000840F100008F1A4FF000013CBFFA
:10565000C943661B14BFB5EB040C00213CBFC94312
:10566000F61B4FEA17444EEA8E0E27EA04454FEA2E
:105670001C4704FB07622CEA074C05FB07F70CFBF1
:1056800005F604FB0CFC16EB074642EB174216EB43
:105690000C4642EB1C421BEB060658EB0202414152
:1056A00046EA9E0601D5BDE80189B619524141EB93
:1056B0000101A3F10103BDE801894FEA14454FEA56
:1056C000114724EA054621EA074C05FB07F406FBCF
:1056D00007F70CFB06F105FB0CFC11EB074144EB53
:1056E00017444FEA124711EB0C4144EB1C4422EAE9
:1056F000074C05FB07F206FB07F70CFB06F605FB5C
:105700000CFC16EB074642EB174216EB0C4642EB3D
:105710001C456A1854F1000148BF7047B619524140
:1057200041EB0101A3F10103704795F0000F37D061
:105730004FEA11424FEA144721EA024624EA074C95
:1057400002FB07F106FB07F70CFB06F402FB0CFC5F
:1057500014EB074441EB17414FEA154714EB0C4497
:1057600041EB1C4125EA074C02FB07F506FB07F756
:105770000CFB06F602FB0CFC16EB074645EB174547
:1057800016EB0C4645EB1C42121951F1000148BFC3
:105790007047B619524141EB0101A3F10103704773
:1057A0004FEA14454FEA114724EA054621EA074C1F
:1057B00005FB07F106FB07F70CFB06F24FF00006AE
:1057C00005FB0CFC12EB074241EB174112EB0C42BC
:1057D00051EB1C4148BF7047921841EB0101A3F106
:1057E00001037047490050EAC12018BF04204A0D48
:1057F00018BF40F0010040F2FF72B2EB515F08BFEA
:1058000040F00200012808BF0520704730380A2800
:1058100001D20120704700207047000010B5002918
:105820000AD00878002807D005487844FFF7D2FB53
:10583000002801D0002010BD0248784410BD0000AF
:10584000DA0B0000D20B000010B500290AD008784E
:10585000002807D005487844FFF7BCFB002801D09A
:10586000002010BD0248784410BD0000CA0B0000A3
:10587000C20B00004FEA1153A3F58063D3F11E035E
:10588000A8BFD3F1200C08DB4FF0004242EAC1224E
:1058900052EA505232FA03F0704709420BD4102BEF
:1058A000C4BF0020704703F5787CBCF1FF3F05D0F2
:1058B0004FF0FF3070474FF00000704770B500F0B8
:1058C000C3F800BF4992248000207047F0E7B0FA87
:1058D00080F310FA03F10AD0C3F11D0303F58063CE
:1058E0004FEA41504FEA035202EBD12170474FF08B
:1058F00000007047DFF848C170B51CEA111E1EBFDA
:105900001CEA13159EEA0C0F95EA0C0F00F06F804D
:1059100081EA030423EA4C134EEAD47E21EA4C11B7
:1059200041F4801143F48013AE44A1FB024CA0FB70
:105930000365AEF17F7E361955EB0C05A1FB034CD8
:105940004CF10003A0FB021C16EB0C06654153F161
:105950000003094218BF46F0010613F4007F0BD183
:105960004FEA03314FEA0530340341EA155140EA6A
:1059700016506FF003020AE04FEAC3214FEAC52038
:10598000F40241EA555140EA56506FF0020202EB30
:105990002E4201EB025585EACE710AD05FEA440C33
:1059A00018BF24F0004450F1000041F1000120EA4A
:1059B000D47040F2FE7C624500D270BDA84214BF94
:1059C0004FF080444FF04044002E08BF0024BEF149
:1059D000806FA8BFA1F1C041BDE8704080F2828015
:1059E0004FF0000001F1C04101F0004170479EEA14
:1059F0000C0F0CEA131518BF95EA0C0F06D04FF0E8
:105A0000000081EA030E0EF0004170BD00F01CF8AA
:105A10008900013E00F007B800F009B84FEA430CD6
:105A20005FEA5C5C08D081EA030100F05BB84FEAF2
:105A3000410C5FEA5C5CF6D14FF000000149704711
:105A40000000FF070000F87F0EF1020E2EF0030E9B
:105A50005EF8046B364205D4012A43EB030515F5C5
:105A6000001F12D8012841EB010C1CF5001F0CD8B7
:105A70000ED14FEAD17C15F5001F0CEB4C0C0CF14C
:105A8000020C08BF4CEBD37C04E04FF0080C01E0A3
:105A90004FEAD37C0CEB4C0526FA05F606F0070618
:105AA000B6F1040C06D20EEB860CBDE870404CF04B
:105AB000010C6047DFE80CF0090B02024FF00041D7
:105AC0004FF00000A1F5002170BD194610460128D5
:105AD00051EB010418BFD4F5001484BF002001F07D
